{
  "_format": "hh-sol-artifact-1",
  "contractName": "FeeDB",
  "sourceName": "contracts/gaiabridge/FeeDB.sol",
  "abi": [
    {
      "inputs": [
        {
          "internalType": "address",
          "name": "_protocolFeeRecipient",
          "type": "address"
        }
      ],
      "stateMutability": "nonpayable",
      "type": "constructor"
    },
    {
      "anonymous": false,
      "inputs": [
        {
          "indexed": true,
          "internalType": "address",
          "name": "previousOwner",
          "type": "address"
        },
        {
          "indexed": true,
          "internalType": "address",
          "name": "newOwner",
          "type": "address"
        }
      ],
      "name": "OwnershipTransferred",
      "type": "event"
    },
    {
      "anonymous": false,
      "inputs": [
        {
          "indexed": false,
          "internalType": "address",
          "name": "newRecipient",
          "type": "address"
        }
      ],
      "name": "SetFeeRecipient",
      "type": "event"
    },
    {
      "anonymous": false,
      "inputs": [
        {
          "indexed": false,
          "internalType": "enum IGaiaBridge.TokenType",
          "name": "tokenType",
          "type": "uint8"
        },
        {
          "indexed": false,
          "internalType": "uint256",
          "name": "fee",
          "type": "uint256"
        }
      ],
      "name": "SetProtocolFee",
      "type": "event"
    },
    {
      "anonymous": false,
      "inputs": [
        {
          "indexed": false,
          "internalType": "enum IGaiaBridge.TokenType",
          "name": "tokenType",
          "type": "uint8"
        },
        {
          "indexed": false,
          "internalType": "uint256",
          "name": "feeRate",
          "type": "uint256"
        }
      ],
      "name": "SetProtocolFeeRate",
      "type": "event"
    },
    {
      "anonymous": false,
      "inputs": [
        {
          "indexed": false,
          "internalType": "address",
          "name": "token",
          "type": "address"
        },
        {
          "indexed": false,
          "internalType": "uint256",
          "name": "id",
          "type": "uint256"
        },
        {
          "indexed": false,
          "internalType": "uint256",
          "name": "holdingAmount",
          "type": "uint256"
        },
        {
          "indexed": false,
          "internalType": "uint256",
          "name": "discountRate",
          "type": "uint256"
        }
      ],
      "name": "UpdateERC1155DiscountData",
      "type": "event"
    },
    {
      "anonymous": false,
      "inputs": [
        {
          "indexed": false,
          "internalType": "address",
          "name": "token",
          "type": "address"
        },
        {
          "indexed": false,
          "internalType": "uint256",
          "name": "holdingAmount",
          "type": "uint256"
        },
        {
          "indexed": false,
          "internalType": "uint256",
          "name": "discountRate",
          "type": "uint256"
        }
      ],
      "name": "UpdateTokenDiscountData",
      "type": "event"
    },
    {
      "anonymous": false,
      "inputs": [
        {
          "indexed": false,
          "internalType": "address",
          "name": "user",
          "type": "address"
        },
        {
          "indexed": false,
          "internalType": "uint256",
          "name": "discountRate",
          "type": "uint256"
        }
      ],
      "name": "UpdateUserDiscountRate",
      "type": "event"
    },
    {
      "inputs": [
        {
          "internalType": "address",
          "name": "token",
          "type": "address"
        },
        {
          "internalType": "uint256",
          "name": "id",
          "type": "uint256"
        }
      ],
      "name": "ERC1155DiscountData",
      "outputs": [
        {
          "components": [
            {
              "internalType": "uint16",
              "name": "discountRate",
              "type": "uint16"
            },
            {
              "internalType": "uint240",
              "name": "holdingAmount",
              "type": "uint240"
            }
          ],
          "internalType": "struct IFeeDB.TokenDiscountData",
          "name": "",
          "type": "tuple"
        }
      ],
      "stateMutability": "view",
      "type": "function"
    },
    {
      "inputs": [
        {
          "internalType": "address",
          "name": "user",
          "type": "address"
        },
        {
          "internalType": "enum IGaiaBridge.TokenType",
          "name": "tokenType",
          "type": "uint8"
        },
        {
          "internalType": "address",
          "name": "",
          "type": "address"
        },
        {
          "internalType": "uint256[]",
          "name": "",
          "type": "uint256[]"
        },
        {
          "internalType": "uint256[]",
          "name": "amounts",
          "type": "uint256[]"
        },
        {
          "internalType": "bytes",
          "name": "data",
          "type": "bytes"
        }
      ],
      "name": "getFeeInfo",
      "outputs": [
        {
          "internalType": "address",
          "name": "recipient",
          "type": "address"
        },
        {
          "internalType": "uint256",
          "name": "fee",
          "type": "uint256"
        }
      ],
      "stateMutability": "view",
      "type": "function"
    },
    {
      "inputs": [],
      "name": "owner",
      "outputs": [
        {
          "internalType": "address",
          "name": "",
          "type": "address"
        }
      ],
      "stateMutability": "view",
      "type": "function"
    },
    {
      "inputs": [
        {
          "internalType": "enum IGaiaBridge.TokenType",
          "name": "tokenType",
          "type": "uint8"
        }
      ],
      "name": "protocolFee",
      "outputs": [
        {
          "internalType": "uint256",
          "name": "",
          "type": "uint256"
        }
      ],
      "stateMutability": "view",
      "type": "function"
    },
    {
      "inputs": [
        {
          "internalType": "enum IGaiaBridge.TokenType",
          "name": "tokenType",
          "type": "uint8"
        }
      ],
      "name": "protocolFeeRate",
      "outputs": [
        {
          "internalType": "uint256",
          "name": "",
          "type": "uint256"
        }
      ],
      "stateMutability": "view",
      "type": "function"
    },
    {
      "inputs": [],
      "name": "protocolFeeRecipient",
      "outputs": [
        {
          "internalType": "address",
          "name": "",
          "type": "address"
        }
      ],
      "stateMutability": "view",
      "type": "function"
    },
    {
      "inputs": [],
      "name": "renounceOwnership",
      "outputs": [],
      "stateMutability": "nonpayable",
      "type": "function"
    },
    {
      "inputs": [
        {
          "internalType": "address",
          "name": "newRecipient",
          "type": "address"
        }
      ],
      "name": "setFeeRecipient",
      "outputs": [],
      "stateMutability": "nonpayable",
      "type": "function"
    },
    {
      "inputs": [
        {
          "internalType": "enum IGaiaBridge.TokenType",
          "name": "tokenType",
          "type": "uint8"
        },
        {
          "internalType": "uint256",
          "name": "fee",
          "type": "uint256"
        }
      ],
      "name": "setProtocolFee",
      "outputs": [],
      "stateMutability": "nonpayable",
      "type": "function"
    },
    {
      "inputs": [
        {
          "internalType": "enum IGaiaBridge.TokenType",
          "name": "tokenType",
          "type": "uint8"
        },
        {
          "internalType": "uint256",
          "name": "feeRate",
          "type": "uint256"
        }
      ],
      "name": "setProtocolFeeRate",
      "outputs": [],
      "stateMutability": "nonpayable",
      "type": "function"
    },
    {
      "inputs": [
        {
          "internalType": "address",
          "name": "token",
          "type": "address"
        }
      ],
      "name": "tokenDiscountData",
      "outputs": [
        {
          "components": [
            {
              "internalType": "uint16",
              "name": "discountRate",
              "type": "uint16"
            },
            {
              "internalType": "uint240",
              "name": "holdingAmount",
              "type": "uint240"
            }
          ],
          "internalType": "struct IFeeDB.TokenDiscountData",
          "name": "",
          "type": "tuple"
        }
      ],
      "stateMutability": "view",
      "type": "function"
    },
    {
      "inputs": [
        {
          "internalType": "address",
          "name": "newOwner",
          "type": "address"
        }
      ],
      "name": "transferOwnership",
      "outputs": [],
      "stateMutability": "nonpayable",
      "type": "function"
    },
    {
      "inputs": [
        {
          "internalType": "address[]",
          "name": "tokens",
          "type": "address[]"
        },
        {
          "internalType": "uint256[]",
          "name": "ids",
          "type": "uint256[]"
        },
        {
          "components": [
            {
              "internalType": "uint16",
              "name": "discountRate",
              "type": "uint16"
            },
            {
              "internalType": "uint240",
              "name": "holdingAmount",
              "type": "uint240"
            }
          ],
          "internalType": "struct IFeeDB.TokenDiscountData[]",
          "name": "discountData",
          "type": "tuple[]"
        }
      ],
      "name": "updateERC1155DiscountData",
      "outputs": [],
      "stateMutability": "nonpayable",
      "type": "function"
    },
    {
      "inputs": [
        {
          "internalType": "address[]",
          "name": "tokens",
          "type": "address[]"
        },
        {
          "components": [
            {
              "internalType": "uint16",
              "name": "discountRate",
              "type": "uint16"
            },
            {
              "internalType": "uint240",
              "name": "holdingAmount",
              "type": "uint240"
            }
          ],
          "internalType": "struct IFeeDB.TokenDiscountData[]",
          "name": "discountData",
          "type": "tuple[]"
        }
      ],
      "name": "updateTokenDiscountData",
      "outputs": [],
      "stateMutability": "nonpayable",
      "type": "function"
    },
    {
      "inputs": [
        {
          "internalType": "address[]",
          "name": "users",
          "type": "address[]"
        },
        {
          "internalType": "uint256[]",
          "name": "discountRates",
          "type": "uint256[]"
        }
      ],
      "name": "updateUserDiscountRate",
      "outputs": [],
      "stateMutability": "nonpayable",
      "type": "function"
    },
    {
      "inputs": [
        {
          "internalType": "address",
          "name": "",
          "type": "address"
        }
      ],
      "name": "userDiscountRate",
      "outputs": [
        {
          "internalType": "uint256",
          "name": "",
          "type": "uint256"
        }
      ],
      "stateMutability": "view",
      "type": "function"
    }
  ],
  "bytecode": "0x608060405234801561001057600080fd5b5060405162001c9438038062001c94833981016040819052610031916100e1565b61003a33610091565b600180546001600160a01b0319166001600160a01b0383169081179091556040519081527f2e979f80fe4d43055c584cf4a8467c55875ea36728fc37176c05acd784eb7a739060200160405180910390a150610111565b600080546001600160a01b038381166001600160a01b0319831681178455604051919092169283917f8be0079c531659141344cd1fd0a4f28419497f9722a3daafe3b4186f6b6457e09190a35050565b6000602082840312156100f357600080fd5b81516001600160a01b038116811461010a57600080fd5b9392505050565b611b7380620001216000396000f3fe608060405234801561001057600080fd5b50600436106101005760003560e01c80637f886ae111610097578063e0142bcf11610066578063e0142bcf1461025d578063e74b981b14610270578063f2fde38b14610283578063f4401a6d1461029657600080fd5b80637f886ae1146102065780638bb81b88146102195780638da5cb5b14610239578063990c79d01461024a57600080fd5b806363869a11116100d357806363869a11146101ad57806364df049e146101c0578063715018a6146101eb57806376c91d6f146101f357600080fd5b80632c6a19b91461010557806335b233831461014557806341cdd2df146101775780635119e36214610198575b600080fd5b61011861011336600461154c565b6102a9565b60408051825161ffff1681526020928301516001600160f01b031692810192909252015b60405180910390f35b6101586101533660046115d3565b61033f565b604080516001600160a01b03909316835260208301919091520161013c565b61018a6101853660046116cf565b6105b9565b60405190815260200161013c565b6101ab6101a63660046116ea565b61064e565b005b6101ab6101bb366004611756565b6107aa565b6001546101d3906001600160a01b031681565b6040516001600160a01b03909116815260200161013c565b6101ab61087f565b6101ab610201366004611756565b610893565b6101ab6102143660046117b7565b61097c565b61018a610227366004611817565b60046020526000908152604090205481565b6000546001600160a01b03166101d3565b61018a6102583660046116cf565b610c11565b61011861026b366004611817565b610c7d565b6101ab61027e366004611817565b610d07565b6101ab610291366004611817565b610d63565b6101ab6102a4366004611834565b610ddc565b60408051808201909152600080825260208201526001600160a01b0383166000908152600660209081526040808320858452825280832081518083019092525461ffff8116808352620100009091046001600160f01b031692820192909252910361031a5760006020820152610336565b6103278160200151611140565b6001600160f01b031660208201525b90505b92915050565b600080600061034f8c868661114d565b905080612710036103675760008092509250506105ab565b6001600160a01b038c16600090815260046020526040902054612710819003610398576000809350935050506105ab565b808210156103a4578091505b600180546001600160a01b031694508c60038111156103c5576103c56118ce565b1161048457600187146104105760405162461bcd60e51b815260206004820152600e60248201526d0929cac82989288be988a9c8ea8960931b60448201526064015b60405180910390fd5b6000600360008e6003811115610428576104286118ce565b6003811115610439576104396118ce565b8152602001908152602001600020549050612710818a8a6000818110610461576104616118e4565b905060200201356104729190611910565b61047c9190611927565b935050610585565b6000805b8881101561053f5760038e60038111156104a4576104a46118ce565b03610509578989828181106104bb576104bb6118e4565b905060200201356001146105095760405162461bcd60e51b81526020600482015260156024820152741253959053125117d15490cdcc8c57d05353d55395605a1b6044820152606401610407565b89898281811061051b5761051b6118e4565b905060200201358261052d9190611949565b91506105388161195c565b9050610488565b5080600260008f6003811115610557576105576118ce565b6003811115610568576105686118ce565b8152602001908152602001600020546105819190611910565b9350505b6127106105928382611975565b61059c9085611910565b6105a69190611927565b925050505b995099975050505050505050565b600060028260038111156105cf576105cf6118ce565b10156106115760405162461bcd60e51b81526020600482015260116024820152704f4e4c595f464f525f313135355f37323160781b6044820152606401610407565b60026000836003811115610627576106276118ce565b6003811115610638576106386118ce565b8152602001908152602001600020549050919050565b610656611462565b8281146106755760405162461bcd60e51b815260040161040790611988565b60005b838110156107a357612710838383818110610695576106956118e4565b9050602002013511156106ba5760405162461bcd60e51b8152600401610407906119b2565b8282828181106106cc576106cc6118e4565b90506020020135600460008787858181106106e9576106e96118e4565b90506020020160208101906106fe9190611817565b6001600160a01b031681526020810191909152604001600020557f66f5c8ba307e94099f62c5c4b7f1bc66f6cb55639cf8fec49fd379917c70a3bf85858381811061074b5761074b6118e4565b90506020020160208101906107609190611817565b848484818110610772576107726118e4565b604080516001600160a01b0390951685526020918202939093013590840152500160405180910390a1600101610678565b5050505050565b6107b2611462565b60028260038111156107c6576107c66118ce565b10156108085760405162461bcd60e51b81526020600482015260116024820152704f4e4c595f464f525f313135355f37323160781b6044820152606401610407565b806002600084600381111561081f5761081f6118ce565b6003811115610830576108306118ce565b8152602001908152602001600020819055507ffb5d14fd6a82c1077aadb938c9ea3bc9297cb58dc5fbdd337b492ed585284b9e82826040516108739291906119d9565b60405180910390a15050565b610887611462565b61089160006114bc565b565b61089b611462565b60018260038111156108af576108af6118ce565b11156108ef5760405162461bcd60e51b815260206004820152600f60248201526e04f4e4c595f464f525f4554485f323608c1b6044820152606401610407565b6127108111156109115760405162461bcd60e51b8152600401610407906119b2565b8060036000846003811115610928576109286118ce565b6003811115610939576109396118ce565b8152602001908152602001600020819055507f67fdd14040d65a4c03c887fc89dee4a5d990a9c2d34b5d388e4875a316a77f5082826040516108739291906119d9565b610984611462565b8281146109a35760405162461bcd60e51b815260040161040790611988565b60005b838110156107a35760008383838181106109c2576109c26118e4565b9050604002018036038101906109d89190611a05565b9050612710816000015161ffff161115610a045760405162461bcd60e51b8152600401610407906119b2565b80602001516001600160f01b0316600003610a8857805161ffff1615610a3c5760405162461bcd60e51b815260040161040790611a85565b60056000878785818110610a5257610a526118e4565b9050602002016020810190610a679190611817565b6001600160a01b031681526020810191909152604001600090812055610b79565b805161ffff16600003610aad5760405162461bcd60e51b815260040161040790611a85565b805160056000888886818110610ac557610ac56118e4565b9050602002016020810190610ada9190611817565b6001600160a01b03168152602080820192909252604001600020805461ffff191661ffff9390931692909217909155810151610b159061150c565b60056000888886818110610b2b57610b2b6118e4565b9050602002016020810190610b409190611817565b6001600160a01b03168152602081019190915260400160002080546001600160f01b0392909216620100000261ffff9092169190911790555b7f6fe7fdc71f03b3bb4d7182c15712fd39aeca3b6015817c1636c07ca9a499e629868684818110610bac57610bac6118e4565b9050602002016020810190610bc19190611817565b60208301518351604051610c00939291906001600160a01b039390931683526001600160f01b0391909116602083015261ffff16604082015260600190565b60405180910390a1506001016109a6565b60006001826003811115610c2757610c276118ce565b1115610c675760405162461bcd60e51b815260206004820152600f60248201526e04f4e4c595f464f525f4554485f323608c1b6044820152606401610407565b60036000836003811115610627576106276118ce565b60408051808201909152600080825260208201526001600160a01b038216600090815260056020908152604080832081518083019092525461ffff8116808352620100009091046001600160f01b0316928201929092529103610ce65760006020820152610339565b610cf38160200151611140565b6001600160f01b0316602082015292915050565b610d0f611462565b600180546001600160a01b0319166001600160a01b0383169081179091556040519081527f2e979f80fe4d43055c584cf4a8467c55875ea36728fc37176c05acd784eb7a739060200160405180910390a150565b610d6b611462565b6001600160a01b038116610dd05760405162461bcd60e51b815260206004820152602660248201527f4f776e61626c653a206e6577206f776e657220697320746865207a65726f206160448201526564647265737360d01b6064820152608401610407565b610dd9816114bc565b50565b610de4611462565b848181148015610df357508084145b610e0f5760405162461bcd60e51b815260040161040790611988565b60005b81811015611136576000848483818110610e2e57610e2e6118e4565b905060400201803603810190610e449190611a05565b9050612710816000015161ffff161115610e705760405162461bcd60e51b8152600401610407906119b2565b80602001516001600160f01b0316600003610f2857805161ffff1615610ea85760405162461bcd60e51b815260040161040790611a85565b600660008a8a85818110610ebe57610ebe6118e4565b9050602002016020810190610ed39190611817565b6001600160a01b03166001600160a01b031681526020019081526020016000206000888885818110610f0757610f076118e4565b60209081029290920135835250810191909152604001600090812055611089565b805161ffff16600003610f4d5760405162461bcd60e51b815260040161040790611a85565b8051600660008b8b86818110610f6557610f656118e4565b9050602002016020810190610f7a9190611817565b6001600160a01b03166001600160a01b031681526020019081526020016000206000898986818110610fae57610fae6118e4565b90506020020135815260200190815260200160002060000160006101000a81548161ffff021916908361ffff160217905550610fed816020015161150c565b600660008b8b86818110611003576110036118e4565b90506020020160208101906110189190611817565b6001600160a01b03166001600160a01b03168152602001908152602001600020600089898681811061104c5761104c6118e4565b90506020020135815260200190815260200160002060000160026101000a8154816001600160f01b0302191690836001600160f01b031602179055505b7faef2fc6e10e969c00be388a13cb56c03922091d1f65763889187d2828be9c70e8989848181106110bc576110bc6118e4565b90506020020160208101906110d19190611817565b8888858181106110e3576110e36118e4565b6020868101518751604080516001600160a01b0390981688529383029590950135918601919091526001600160f01b0316908401525061ffff16606082015260800160405180910390a150600101610e12565b5050505050505050565b6000610339826001611aad565b600060028290036111b6576111628284611ad4565b60f01c90506127108111156111b15760405162461bcd60e51b81526020600482015260156024820152744f555452414e4745445f4d414e55414c5f5241544560581b6044820152606401610407565b61145b565b60208290036113015760006111cd83850185611817565b90506001600160a01b038116156112fb576001600160a01b038116600090815260056020908152604080832081518083019092525461ffff8116808352620100009091046001600160f01b03169282019290925291036112325760009250505061145b565b61123f8160200151611140565b6040516370a0823160e01b81526001600160a01b0388811660048301526001600160f01b0392909216918416906370a0823190602401602060405180830381865afa158015611292573d6000803e3d6000fd5b505050506040513d601f19601f820116820180604052508101906112b69190611b04565b10156112f35760405162461bcd60e51b815260206004820152600c60248201526b15539055551213d49256915160a21b6044820152606401610407565b5161ffff1691505b5061145b565b604082900361145b576000806113198486018661154c565b90925090506001600160a01b03821615611458576001600160a01b0382166000908152600660209081526040808320848452825280832081518083019092525461ffff8116808352620100009091046001600160f01b031692820192909252910361138a576000935050505061145b565b6113978160200151611140565b604051627eeac760e11b81526001600160a01b038981166004830152602482018590526001600160f01b03929092169185169062fdd58e90604401602060405180830381865afa1580156113ef573d6000803e3d6000fd5b505050506040513d601f19601f820116820180604052508101906114139190611b04565b10156114505760405162461bcd60e51b815260206004820152600c60248201526b15539055551213d49256915160a21b6044820152606401610407565b5161ffff1692505b50505b9392505050565b6000546001600160a01b031633146108915760405162461bcd60e51b815260206004820181905260248201527f4f776e61626c653a2063616c6c6572206973206e6f7420746865206f776e65726044820152606401610407565b600080546001600160a01b038381166001600160a01b0319831681178455604051919092169283917f8be0079c531659141344cd1fd0a4f28419497f9722a3daafe3b4186f6b6457e09190a35050565b60006001826001600160f01b03161161152757506000919050565b610339600183611b1d565b919050565b6001600160a01b0381168114610dd957600080fd5b6000806040838503121561155f57600080fd5b823561156a81611537565b946020939093013593505050565b80356004811061153257600080fd5b60008083601f84011261159957600080fd5b50813567ffffffffffffffff8111156115b157600080fd5b6020830191508360208260051b85010111156115cc57600080fd5b9250929050565b600080600080600080600080600060c08a8c0312156115f157600080fd5b89356115fc81611537565b985061160a60208b01611578565b975060408a013561161a81611537565b965060608a013567ffffffffffffffff8082111561163757600080fd5b6116438d838e01611587565b909850965060808c013591508082111561165c57600080fd5b6116688d838e01611587565b909650945060a08c013591508082111561168157600080fd5b818c0191508c601f83011261169557600080fd5b8135818111156116a457600080fd5b8d60208285010111156116b657600080fd5b6020830194508093505050509295985092959850929598565b6000602082840312156116e157600080fd5b61145b82611578565b6000806000806040858703121561170057600080fd5b843567ffffffffffffffff8082111561171857600080fd5b61172488838901611587565b9096509450602087013591508082111561173d57600080fd5b5061174a87828801611587565b95989497509550505050565b6000806040838503121561176957600080fd5b61156a83611578565b60008083601f84011261178457600080fd5b50813567ffffffffffffffff81111561179c57600080fd5b6020830191508360208260061b85010111156115cc57600080fd5b600080600080604085870312156117cd57600080fd5b843567ffffffffffffffff808211156117e557600080fd5b6117f188838901611587565b9096509450602087013591508082111561180a57600080fd5b5061174a87828801611772565b60006020828403121561182957600080fd5b813561033681611537565b6000806000806000806060878903121561184d57600080fd5b863567ffffffffffffffff8082111561186557600080fd5b6118718a838b01611587565b9098509650602089013591508082111561188a57600080fd5b6118968a838b01611587565b909650945060408901359150808211156118af57600080fd5b506118bc89828a01611772565b979a9699509497509295939492505050565b634e487b7160e01b600052602160045260246000fd5b634e487b7160e01b600052603260045260246000fd5b634e487b7160e01b600052601160045260246000fd5b8082028115828204841417610339576103396118fa565b60008261194457634e487b7160e01b600052601260045260246000fd5b500490565b80820180821115610339576103396118fa565b60006001820161196e5761196e6118fa565b5060010190565b81810381811115610339576103396118fa565b60208082526010908201526f13115391d51217d393d517d15455505360821b604082015260600190565b6020808252600d908201526c26a0ac2fa920aa22afa7ab22a960991b604082015260600190565b60408101600484106119fb57634e487b7160e01b600052602160045260246000fd5b9281526020015290565b600060408284031215611a1757600080fd5b6040516040810181811067ffffffffffffffff82111715611a4857634e487b7160e01b600052604160045260246000fd5b604052823561ffff81168114611a5d57600080fd5b815260208301356001600160f01b0381168114611a7957600080fd5b60208201529392505050565b6020808252600e908201526d494e56414c49445f504152414d5360901b604082015260600190565b6001600160f01b03818116838216019080821115611acd57611acd6118fa565b5092915050565b6001600160f01b03198135818116916002851015611afc5780818660020360031b1b83161692505b505092915050565b600060208284031215611b1657600080fd5b5051919050565b6001600160f01b03828116828216039080821115611acd57611acd6118fa56fea2646970667358221220d14db9e078749e03f5e81846688e7d700b4934601797c43bc52eafe2cbe247dd64736f6c63430008140033",
  "linkReferences": {},
  "deployedLinkReferences": {}
}