{
  "_format": "hh-sol-artifact-1",
  "contractName": "ERC721GEnumerableUtil",
  "sourceName": "contracts/gaia-protocol-assets/utils/ERC721GEnumerableUtil.sol",
  "abi": [
    {
      "inputs": [
        {
          "internalType": "address",
          "name": "nftAddress",
          "type": "address"
        },
        {
          "internalType": "address",
          "name": "owner",
          "type": "address"
        }
      ],
      "name": "getTotalTokenIds",
      "outputs": [
        {
          "internalType": "uint256[]",
          "name": "",
          "type": "uint256[]"
        }
      ],
      "stateMutability": "view",
      "type": "function"
    }
  ],
  "bytecode": "0x608060405234801561001057600080fd5b506102fa806100206000396000f3fe608060405234801561001057600080fd5b506004361061002b5760003560e01c8063326da40514610030575b600080fd5b61004361003e3660046101e1565b610059565b6040516100509190610214565b60405180910390f35b6040516370a0823160e01b81526001600160a01b0382811660048301526060918491600091908316906370a0823190602401602060405180830381865afa1580156100a8573d6000803e3d6000fd5b505050506040513d601f19601f820116820180604052508101906100cc9190610258565b67ffffffffffffffff8111156100e4576100e4610271565b60405190808252806020026020018201604052801561010d578160200160208202803683370190505b50905060005b81518110156101bc57604051632f745c5960e01b81526001600160a01b03868116600483015260248201839052841690632f745c5990604401602060405180830381865afa158015610169573d6000803e3d6000fd5b505050506040513d601f19601f8201168201806040525081019061018d9190610258565b82828151811061019f5761019f610287565b6020908102919091010152806101b48161029d565b915050610113565b50949350505050565b80356001600160a01b03811681146101dc57600080fd5b919050565b600080604083850312156101f457600080fd5b6101fd836101c5565b915061020b602084016101c5565b90509250929050565b6020808252825182820181905260009190848201906040850190845b8181101561024c57835183529284019291840191600101610230565b50909695505050505050565b60006020828403121561026a57600080fd5b5051919050565b634e487b7160e01b600052604160045260246000fd5b634e487b7160e01b600052603260045260246000fd5b6000600182016102bd57634e487b7160e01b600052601160045260246000fd5b506001019056fea26469706673582212208bb7a192e21398bf6fce14d5c1932e5a1e0fe5861de4bbf79caf50432cc0978264736f6c63430008110033",
  "linkReferences": {},
  "deployedLinkReferences": {}
}