{
  "_format": "hh-sol-artifact-1",
  "contractName": "WrappedInjeolmi",
  "sourceName": "contracts/WrappedInjeolmi.sol",
  "abi": [
    {
      "inputs": [
        {
          "internalType": "address",
          "name": "_signer",
          "type": "address"
        }
      ],
      "stateMutability": "nonpayable",
      "type": "constructor"
    },
    {
      "anonymous": false,
      "inputs": [
        {
          "indexed": true,
          "internalType": "address",
          "name": "owner",
          "type": "address"
        },
        {
          "indexed": true,
          "internalType": "address",
          "name": "spender",
          "type": "address"
        },
        {
          "indexed": false,
          "internalType": "uint256",
          "name": "value",
          "type": "uint256"
        }
      ],
      "name": "Approval",
      "type": "event"
    },
    {
      "anonymous": false,
      "inputs": [
        {
          "indexed": true,
          "internalType": "address",
          "name": "previousOwner",
          "type": "address"
        },
        {
          "indexed": true,
          "internalType": "address",
          "name": "newOwner",
          "type": "address"
        }
      ],
      "name": "OwnershipTransferred",
      "type": "event"
    },
    {
      "anonymous": false,
      "inputs": [
        {
          "indexed": true,
          "internalType": "address",
          "name": "receiver",
          "type": "address"
        },
        {
          "indexed": true,
          "internalType": "uint256",
          "name": "fromChain",
          "type": "uint256"
        },
        {
          "indexed": true,
          "internalType": "address",
          "name": "sender",
          "type": "address"
        },
        {
          "indexed": false,
          "internalType": "uint256",
          "name": "sendId",
          "type": "uint256"
        },
        {
          "indexed": false,
          "internalType": "uint256",
          "name": "amount",
          "type": "uint256"
        }
      ],
      "name": "ReceiveOverHorizon",
      "type": "event"
    },
    {
      "anonymous": false,
      "inputs": [
        {
          "indexed": true,
          "internalType": "address",
          "name": "sender",
          "type": "address"
        },
        {
          "indexed": true,
          "internalType": "uint256",
          "name": "toChain",
          "type": "uint256"
        },
        {
          "indexed": true,
          "internalType": "address",
          "name": "receiver",
          "type": "address"
        },
        {
          "indexed": false,
          "internalType": "uint256",
          "name": "sendId",
          "type": "uint256"
        },
        {
          "indexed": false,
          "internalType": "uint256",
          "name": "amount",
          "type": "uint256"
        }
      ],
      "name": "SendOverHorizon",
      "type": "event"
    },
    {
      "anonymous": false,
      "inputs": [
        {
          "indexed": true,
          "internalType": "address",
          "name": "signer",
          "type": "address"
        }
      ],
      "name": "SetSigner",
      "type": "event"
    },
    {
      "anonymous": false,
      "inputs": [
        {
          "indexed": true,
          "internalType": "address",
          "name": "from",
          "type": "address"
        },
        {
          "indexed": true,
          "internalType": "address",
          "name": "to",
          "type": "address"
        },
        {
          "indexed": false,
          "internalType": "uint256",
          "name": "value",
          "type": "uint256"
        }
      ],
      "name": "Transfer",
      "type": "event"
    },
    {
      "inputs": [],
      "name": "DOMAIN_SEPARATOR",
      "outputs": [
        {
          "internalType": "bytes32",
          "name": "",
          "type": "bytes32"
        }
      ],
      "stateMutability": "view",
      "type": "function"
    },
    {
      "inputs": [],
      "name": "PERMIT_TYPEHASH",
      "outputs": [
        {
          "internalType": "bytes32",
          "name": "",
          "type": "bytes32"
        }
      ],
      "stateMutability": "view",
      "type": "function"
    },
    {
      "inputs": [
        {
          "internalType": "address",
          "name": "owner",
          "type": "address"
        },
        {
          "internalType": "address",
          "name": "spender",
          "type": "address"
        }
      ],
      "name": "allowance",
      "outputs": [
        {
          "internalType": "uint256",
          "name": "",
          "type": "uint256"
        }
      ],
      "stateMutability": "view",
      "type": "function"
    },
    {
      "inputs": [
        {
          "internalType": "address",
          "name": "spender",
          "type": "address"
        },
        {
          "internalType": "uint256",
          "name": "amount",
          "type": "uint256"
        }
      ],
      "name": "approve",
      "outputs": [
        {
          "internalType": "bool",
          "name": "",
          "type": "bool"
        }
      ],
      "stateMutability": "nonpayable",
      "type": "function"
    },
    {
      "inputs": [
        {
          "internalType": "address",
          "name": "account",
          "type": "address"
        }
      ],
      "name": "balanceOf",
      "outputs": [
        {
          "internalType": "uint256",
          "name": "",
          "type": "uint256"
        }
      ],
      "stateMutability": "view",
      "type": "function"
    },
    {
      "inputs": [],
      "name": "decimals",
      "outputs": [
        {
          "internalType": "uint8",
          "name": "",
          "type": "uint8"
        }
      ],
      "stateMutability": "view",
      "type": "function"
    },
    {
      "inputs": [
        {
          "internalType": "address",
          "name": "spender",
          "type": "address"
        },
        {
          "internalType": "uint256",
          "name": "subtractedValue",
          "type": "uint256"
        }
      ],
      "name": "decreaseAllowance",
      "outputs": [
        {
          "internalType": "bool",
          "name": "",
          "type": "bool"
        }
      ],
      "stateMutability": "nonpayable",
      "type": "function"
    },
    {
      "inputs": [
        {
          "internalType": "address",
          "name": "spender",
          "type": "address"
        },
        {
          "internalType": "uint256",
          "name": "addedValue",
          "type": "uint256"
        }
      ],
      "name": "increaseAllowance",
      "outputs": [
        {
          "internalType": "bool",
          "name": "",
          "type": "bool"
        }
      ],
      "stateMutability": "nonpayable",
      "type": "function"
    },
    {
      "inputs": [],
      "name": "name",
      "outputs": [
        {
          "internalType": "string",
          "name": "",
          "type": "string"
        }
      ],
      "stateMutability": "view",
      "type": "function"
    },
    {
      "inputs": [
        {
          "internalType": "address",
          "name": "",
          "type": "address"
        }
      ],
      "name": "nonces",
      "outputs": [
        {
          "internalType": "uint256",
          "name": "",
          "type": "uint256"
        }
      ],
      "stateMutability": "view",
      "type": "function"
    },
    {
      "inputs": [],
      "name": "owner",
      "outputs": [
        {
          "internalType": "address",
          "name": "",
          "type": "address"
        }
      ],
      "stateMutability": "view",
      "type": "function"
    },
    {
      "inputs": [
        {
          "internalType": "address",
          "name": "owner",
          "type": "address"
        },
        {
          "internalType": "address",
          "name": "spender",
          "type": "address"
        },
        {
          "internalType": "uint256",
          "name": "value",
          "type": "uint256"
        },
        {
          "internalType": "uint256",
          "name": "deadline",
          "type": "uint256"
        },
        {
          "internalType": "uint8",
          "name": "v",
          "type": "uint8"
        },
        {
          "internalType": "bytes32",
          "name": "r",
          "type": "bytes32"
        },
        {
          "internalType": "bytes32",
          "name": "s",
          "type": "bytes32"
        }
      ],
      "name": "permit",
      "outputs": [],
      "stateMutability": "nonpayable",
      "type": "function"
    },
    {
      "inputs": [
        {
          "internalType": "uint256",
          "name": "fromChain",
          "type": "uint256"
        },
        {
          "internalType": "address",
          "name": "sender",
          "type": "address"
        },
        {
          "internalType": "uint256",
          "name": "sendId",
          "type": "uint256"
        },
        {
          "internalType": "uint256",
          "name": "amount",
          "type": "uint256"
        },
        {
          "internalType": "bytes",
          "name": "signature",
          "type": "bytes"
        }
      ],
      "name": "receiveOverHorizon",
      "outputs": [],
      "stateMutability": "nonpayable",
      "type": "function"
    },
    {
      "inputs": [
        {
          "internalType": "address",
          "name": "",
          "type": "address"
        },
        {
          "internalType": "uint256",
          "name": "",
          "type": "uint256"
        },
        {
          "internalType": "address",
          "name": "",
          "type": "address"
        },
        {
          "internalType": "uint256",
          "name": "",
          "type": "uint256"
        }
      ],
      "name": "received",
      "outputs": [
        {
          "internalType": "bool",
          "name": "",
          "type": "bool"
        }
      ],
      "stateMutability": "view",
      "type": "function"
    },
    {
      "inputs": [],
      "name": "renounceOwnership",
      "outputs": [],
      "stateMutability": "nonpayable",
      "type": "function"
    },
    {
      "inputs": [
        {
          "internalType": "address",
          "name": "sender",
          "type": "address"
        },
        {
          "internalType": "uint256",
          "name": "toChain",
          "type": "uint256"
        },
        {
          "internalType": "address",
          "name": "receiver",
          "type": "address"
        }
      ],
      "name": "sendCount",
      "outputs": [
        {
          "internalType": "uint256",
          "name": "",
          "type": "uint256"
        }
      ],
      "stateMutability": "view",
      "type": "function"
    },
    {
      "inputs": [
        {
          "internalType": "uint256",
          "name": "toChain",
          "type": "uint256"
        },
        {
          "internalType": "address",
          "name": "receiver",
          "type": "address"
        },
        {
          "internalType": "uint256",
          "name": "amount",
          "type": "uint256"
        }
      ],
      "name": "sendOverHorizon",
      "outputs": [
        {
          "internalType": "uint256",
          "name": "",
          "type": "uint256"
        }
      ],
      "stateMutability": "nonpayable",
      "type": "function"
    },
    {
      "inputs": [
        {
          "internalType": "address",
          "name": "",
          "type": "address"
        },
        {
          "internalType": "uint256",
          "name": "",
          "type": "uint256"
        },
        {
          "internalType": "address",
          "name": "",
          "type": "address"
        },
        {
          "internalType": "uint256",
          "name": "",
          "type": "uint256"
        }
      ],
      "name": "sended",
      "outputs": [
        {
          "internalType": "uint256",
          "name": "",
          "type": "uint256"
        }
      ],
      "stateMutability": "view",
      "type": "function"
    },
    {
      "inputs": [
        {
          "internalType": "address",
          "name": "_signer",
          "type": "address"
        }
      ],
      "name": "setSigner",
      "outputs": [],
      "stateMutability": "nonpayable",
      "type": "function"
    },
    {
      "inputs": [],
      "name": "signer",
      "outputs": [
        {
          "internalType": "address",
          "name": "",
          "type": "address"
        }
      ],
      "stateMutability": "view",
      "type": "function"
    },
    {
      "inputs": [],
      "name": "symbol",
      "outputs": [
        {
          "internalType": "string",
          "name": "",
          "type": "string"
        }
      ],
      "stateMutability": "view",
      "type": "function"
    },
    {
      "inputs": [],
      "name": "totalSupply",
      "outputs": [
        {
          "internalType": "uint256",
          "name": "",
          "type": "uint256"
        }
      ],
      "stateMutability": "view",
      "type": "function"
    },
    {
      "inputs": [
        {
          "internalType": "address",
          "name": "recipient",
          "type": "address"
        },
        {
          "internalType": "uint256",
          "name": "amount",
          "type": "uint256"
        }
      ],
      "name": "transfer",
      "outputs": [
        {
          "internalType": "bool",
          "name": "",
          "type": "bool"
        }
      ],
      "stateMutability": "nonpayable",
      "type": "function"
    },
    {
      "inputs": [
        {
          "internalType": "address",
          "name": "from",
          "type": "address"
        },
        {
          "internalType": "address",
          "name": "to",
          "type": "address"
        },
        {
          "internalType": "uint256",
          "name": "amount",
          "type": "uint256"
        }
      ],
      "name": "transferFrom",
      "outputs": [
        {
          "internalType": "bool",
          "name": "",
          "type": "bool"
        }
      ],
      "stateMutability": "nonpayable",
      "type": "function"
    },
    {
      "inputs": [
        {
          "internalType": "address",
          "name": "newOwner",
          "type": "address"
        }
      ],
      "name": "transferOwnership",
      "outputs": [],
      "stateMutability": "nonpayable",
      "type": "function"
    },
    {
      "inputs": [],
      "name": "version",
      "outputs": [
        {
          "internalType": "string",
          "name": "",
          "type": "string"
        }
      ],
      "stateMutability": "view",
      "type": "function"
    }
  ],
  "bytecode": "0x6101206040523480156200001257600080fd5b5060405162001d2338038062001d238339810160408190526200003591620002b4565b6040518060400160405280601081526020016f5772617070656420496e6a656f6c6d6960801b8152506040518060400160405280600481526020016357494a4d60e01b815250604051806040016040528060018152602001603160f81b8152508282620000b1620000ab620001ba60201b60201c565b620001be565b8151620000c69060049060208501906200020e565b508051620000dc9060059060208401906200020e565b50508151620000f4915060069060208401906200020e565b507f8b73c3c69bb8fe3d512ecc4cf759cc79239f7b179b0ffacaa9a75d522b39400f6080819052835160208086019190912060a081905283518483012060c08190524660e08190526040516200017495943091019485526020850193909352604084019190915260608301526001600160a01b0316608082015260a00190565b60408051808303601f190181529190528051602090910120610100525050600880546001600160a01b0319166001600160a01b0393909316929092179091555062000323565b3390565b600080546001600160a01b038381166001600160a01b0319831681178455604051919092169283917f8be0079c531659141344cd1fd0a4f28419497f9722a3daafe3b4186f6b6457e09190a35050565b8280546200021c90620002e6565b90600052602060002090601f0160209004810192826200024057600085556200028b565b82601f106200025b57805160ff19168380011785556200028b565b828001600101855582156200028b579182015b828111156200028b5782518255916020019190600101906200026e565b50620002999291506200029d565b5090565b5b808211156200029957600081556001016200029e565b600060208284031215620002c757600080fd5b81516001600160a01b0381168114620002df57600080fd5b9392505050565b600181811c90821680620002fb57607f821691505b602082108114156200031d57634e487b7160e01b600052602260045260246000fd5b50919050565b60805160a05160c05160e051610100516119bb6200036860003960006108bf01526000610896015260006109350152600061090d015260006108e701526119bb6000f3fe608060405234801561001057600080fd5b506004361061018e5760003560e01c80636c19e783116100de578063a457c2d711610097578063d505accf11610071578063d505accf146103c6578063dd62ed3e146103d9578063ec79b18514610412578063f2fde38b1461042557600080fd5b8063a457c2d71461038d578063a9059cbb146103a0578063ba133b33146103b357600080fd5b80636c19e7831461031057806370a0823114610323578063715018a61461034c5780637ecebe00146103545780638da5cb5b1461037457806395d89b411461038557600080fd5b806323b872dd1161014b5780633644e515116101255780633644e515146102ac57806339509351146102b457806354fd4d50146102c75780635acfbbd3146102cf57600080fd5b806323b872dd1461026357806330adf81f14610276578063313ce5671461029d57600080fd5b806306fdde0314610193578063095ea7b3146101b15780630d268d0a146101d457806318160ddd146101e95780631c5489b7146101fb578063238ac93314610238575b600080fd5b61019b610438565b6040516101a89190611573565b60405180910390f35b6101c46101bf3660046115a9565b6104ca565b60405190151581526020016101a8565b6101e76101e23660046115e9565b6104e0565b005b6003545b6040519081526020016101a8565b6101c46102093660046116c8565b600a60209081526000948552604080862082529385528385208152918452828420909152825290205460ff1681565b60085461024b906001600160a01b031681565b6040516001600160a01b0390911681526020016101a8565b6101c461027136600461170c565b61083b565b6101ed7f6e71edae12b1b97f4d1f60370fef10105fa2faae0126114a169c64845d6126c981565b604051601281526020016101a8565b6101ed610892565b6101c46102c23660046115a9565b610983565b61019b6109ba565b6101ed6102dd366004611748565b6001600160a01b039283166000908152600960209081526040808320948352938152838220929094168152925290205490565b6101e761031e366004611784565b610a48565b6101ed610331366004611784565b6001600160a01b031660009081526001602052604090205490565b6101e7610abc565b6101ed610362366004611784565b60076020526000908152604090205481565b6000546001600160a01b031661024b565b61019b610af2565b6101c461039b3660046115a9565b610b01565b6101c46103ae3660046115a9565b610b9a565b6101ed6103c13660046116c8565b610ba7565b6101e76103d436600461179f565b610bf2565b6101ed6103e7366004611812565b6001600160a01b03918216600090815260026020908152604080832093909416825291909152205490565b6101ed610420366004611845565b610e91565b6101e7610433366004611784565b610f22565b6060600480546104479061186a565b80601f01602080910402602001604051908101604052809291908181526020018280546104739061186a565b80156104c05780601f10610495576101008083540402835291602001916104c0565b820191906000526020600020905b8154815290600101906020018083116104a357829003601f168201915b5050505050905090565b60006104d7338484610fbd565b50600192915050565b80516041146105365760405162461bcd60e51b815260206004820152601860248201527f696e76616c6964207369676e6174757265206c656e677468000000000000000060448201526064015b60405180910390fd5b336000908152600a6020908152604080832088845282528083206001600160a01b0388168452825280832086845290915290205460ff161561057757600080fd5b6040516bffffffffffffffffffffffff1933606090811b821660208401526034830188905246605484015286901b1660748201526088810184905260a8810183905260009060c80160405160208183030381529060405280519060200120905060008160405160200161061691907f19457468657265756d205369676e6564204d6573736167653a0a3332000000008152601c810191909152603c0190565b60408051601f19818403018152918152815160209283012091850151908501516060860151929350909160001a7f7fffffffffffffffffffffffffffffff5d576e7357a4501ddfe92f46681b20a08211156106b35760405162461bcd60e51b815260206004820152601b60248201527f696e76616c6964207369676e6174757265202773272076616c75650000000000604482015260640161052d565b8060ff16601b14806106c857508060ff16601c145b6107145760405162461bcd60e51b815260206004820152601b60248201527f696e76616c6964207369676e6174757265202776272076616c75650000000000604482015260640161052d565b60085460408051600081526020810180835287905260ff84169181019190915260608101859052608081018490526001600160a01b039091169060019060a0016020604051602081039080840390855afa158015610776573d6000803e3d6000fd5b505050602060405103516001600160a01b03161461079357600080fd5b6008546001600160a01b03166107a857600080fd5b6107b233886110e2565b336000818152600a602090815260408083208e845282528083206001600160a01b038e168085529083528184208d8552835292819020805460ff1916600117905580518c81529182018b905291928d9290917f9b8cc913c3e25613faea2e6cfeb6dce457ef77c33f5d9f12119326580bec128f910160405180910390a450505050505050505050565b6001600160a01b0383166000908152600260209081526040808320338452909152812054600019811461087c5761087c853361087786856118bb565b610fbd565b6108878585856111c1565b506001949350505050565b60007f00000000000000000000000000000000000000000000000000000000000000004614156108e157507f000000000000000000000000000000000000000000000000000000000000000090565b604080517f000000000000000000000000000000000000000000000000000000000000000060208201527f0000000000000000000000000000000000000000000000000000000000000000918101919091527f000000000000000000000000000000000000000000000000000000000000000060608201524660808201523060a082015260c00160405160208183030381529060405280519060200120905090565b3360008181526002602090815260408083206001600160a01b038716845290915281205490916104d79185906108779086906118d2565b600680546109c79061186a565b80601f01602080910402602001604051908101604052809291908181526020018280546109f39061186a565b8015610a405780601f10610a1557610100808354040283529160200191610a40565b820191906000526020600020905b815481529060010190602001808311610a2357829003601f168201915b505050505081565b6000546001600160a01b03163314610a725760405162461bcd60e51b815260040161052d906118ea565b600880546001600160a01b0319166001600160a01b0383169081179091556040517fbb10aee7ef5a307b8097c6a7f2892b909ff1736fd24a6a5260640c185f7153b690600090a250565b6000546001600160a01b03163314610ae65760405162461bcd60e51b815260040161052d906118ea565b610af06000611390565b565b6060600580546104479061186a565b3360009081526002602090815260408083206001600160a01b038616845290915281205482811015610b835760405162461bcd60e51b815260206004820152602560248201527f45524332303a2064656372656173656420616c6c6f77616e63652062656c6f77604482015264207a65726f60d81b606482015260840161052d565b610b903385858403610fbd565b5060019392505050565b60006104d73384846111c1565b60096020528360005260406000206020528260005260406000206020528160005260406000208181548110610bdb57600080fd5b906000526020600020016000935093505050505481565b83421115610bff57600080fd5b866001600160a01b0316866001600160a01b03161415610c1e57600080fd5b6000610c28610892565b6001600160a01b038916600090815260076020526040812080547f6e71edae12b1b97f4d1f60370fef10105fa2faae0126114a169c64845d6126c9928c928c928c92909190610c768361191f565b909155506040805160208101969096526001600160a01b0394851690860152929091166060840152608083015260a082015260c0810187905260e00160405160208183030381529060405280519060200120604051602001610cef92919061190160f01b81526002810192909252602282015260420190565b604051602081830303815290604052805190602001209050610d11883b151590565b15610de857604080516020810185905280820184905260f886901b6001600160f81b0319166060820152815160418183030181526061820192839052630b135d3f60e11b9092526001600160a01b038a1691631626ba7e91610d7791859160650161193a565b60206040518083038186803b158015610d8f57600080fd5b505afa158015610da3573d6000803e3d6000fd5b505050506040513d601f19601f82011682018060405250810190610dc7919061195b565b6001600160e01b031916631626ba7e60e01b14610de357600080fd5b610e7c565b6040805160008082526020820180845284905260ff871692820192909252606081018590526080810184905260019060a0016020604051602081039080840390855afa158015610e3c573d6000803e3d6000fd5b5050604051601f1901519150506001600160a01b038116610e5c57600080fd5b886001600160a01b0316816001600160a01b031614610e7a57600080fd5b505b610e87888888610fbd565b5050505050505050565b6000610e9d33836113e0565b33600081815260096020908152604080832088845282528083206001600160a01b0388168085529083528184208054600181018255818652948490208501889055825185815293840188905294909289927f88a9fbb0dbf3ab14fab2aaeca87654c792e7f2de49b08a01bdc60820e4429e46910160405180910390a495945050505050565b6000546001600160a01b03163314610f4c5760405162461bcd60e51b815260040161052d906118ea565b6001600160a01b038116610fb15760405162461bcd60e51b815260206004820152602660248201527f4f776e61626c653a206e6577206f776e657220697320746865207a65726f206160448201526564647265737360d01b606482015260840161052d565b610fba81611390565b50565b6001600160a01b03831661101f5760405162461bcd60e51b8152602060048201526024808201527f45524332303a20617070726f76652066726f6d20746865207a65726f206164646044820152637265737360e01b606482015260840161052d565b6001600160a01b0382166110805760405162461bcd60e51b815260206004820152602260248201527f45524332303a20617070726f766520746f20746865207a65726f206164647265604482015261737360f01b606482015260840161052d565b6001600160a01b0383811660008181526002602090815260408083209487168084529482529182902085905590518481527f8c5be1e5ebec7d5bd14f71427d1e84f3dd0314c0f7b2291e5b200ac8c7c3b92591015b60405180910390a3505050565b6001600160a01b0382166111385760405162461bcd60e51b815260206004820152601f60248201527f45524332303a206d696e7420746f20746865207a65726f206164647265737300604482015260640161052d565b806003600082825461114a91906118d2565b90915550506001600160a01b038216600090815260016020526040812080548392906111779084906118d2565b90915550506040518181526001600160a01b038316906000907fddf252ad1be2c89b69c2b068fc378daa952ba7f163c4a11628f55a4df523b3ef9060200160405180910390a35050565b6001600160a01b0383166112255760405162461bcd60e51b815260206004820152602560248201527f45524332303a207472616e736665722066726f6d20746865207a65726f206164604482015264647265737360d81b606482015260840161052d565b6001600160a01b0382166112875760405162461bcd60e51b815260206004820152602360248201527f45524332303a207472616e7366657220746f20746865207a65726f206164647260448201526265737360e81b606482015260840161052d565b6001600160a01b038316600090815260016020526040902054818110156112ff5760405162461bcd60e51b815260206004820152602660248201527f45524332303a207472616e7366657220616d6f756e7420657863656564732062604482015265616c616e636560d01b606482015260840161052d565b6001600160a01b038085166000908152600160205260408082208585039055918516815290812080548492906113369084906118d2565b92505081905550826001600160a01b0316846001600160a01b03167fddf252ad1be2c89b69c2b068fc378daa952ba7f163c4a11628f55a4df523b3ef8460405161138291815260200190565b60405180910390a350505050565b600080546001600160a01b038381166001600160a01b0319831681178455604051919092169283917f8be0079c531659141344cd1fd0a4f28419497f9722a3daafe3b4186f6b6457e09190a35050565b6001600160a01b0382166114405760405162461bcd60e51b815260206004820152602160248201527f45524332303a206275726e2066726f6d20746865207a65726f206164647265736044820152607360f81b606482015260840161052d565b6001600160a01b038216600090815260016020526040902054818110156114b45760405162461bcd60e51b815260206004820152602260248201527f45524332303a206275726e20616d6f756e7420657863656564732062616c616e604482015261636560f01b606482015260840161052d565b6001600160a01b03831660009081526001602052604081208383039055600380548492906114e39084906118bb565b90915550506040518281526000906001600160a01b038516907fddf252ad1be2c89b69c2b068fc378daa952ba7f163c4a11628f55a4df523b3ef906020016110d5565b6000815180845260005b8181101561154c57602081850181015186830182015201611530565b8181111561155e576000602083870101525b50601f01601f19169290920160200192915050565b6020815260006115866020830184611526565b9392505050565b80356001600160a01b03811681146115a457600080fd5b919050565b600080604083850312156115bc57600080fd5b6115c58361158d565b946020939093013593505050565b634e487b7160e01b600052604160045260246000fd5b600080600080600060a0868803121561160157600080fd5b853594506116116020870161158d565b93506040860135925060608601359150608086013567ffffffffffffffff8082111561163c57600080fd5b818801915088601f83011261165057600080fd5b813581811115611662576116626115d3565b604051601f8201601f19908116603f0116810190838211818310171561168a5761168a6115d3565b816040528281528b60208487010111156116a357600080fd5b8260208601602083013760006020848301015280955050505050509295509295909350565b600080600080608085870312156116de57600080fd5b6116e78561158d565b9350602085013592506116fc6040860161158d565b9396929550929360600135925050565b60008060006060848603121561172157600080fd5b61172a8461158d565b92506117386020850161158d565b9150604084013590509250925092565b60008060006060848603121561175d57600080fd5b6117668461158d565b92506020840135915061177b6040850161158d565b90509250925092565b60006020828403121561179657600080fd5b6115868261158d565b600080600080600080600060e0888a0312156117ba57600080fd5b6117c38861158d565b96506117d16020890161158d565b95506040880135945060608801359350608088013560ff811681146117f557600080fd5b9699959850939692959460a0840135945060c09093013592915050565b6000806040838503121561182557600080fd5b61182e8361158d565b915061183c6020840161158d565b90509250929050565b60008060006060848603121561185a57600080fd5b833592506117386020850161158d565b600181811c9082168061187e57607f821691505b6020821081141561189f57634e487b7160e01b600052602260045260246000fd5b50919050565b634e487b7160e01b600052601160045260246000fd5b6000828210156118cd576118cd6118a5565b500390565b600082198211156118e5576118e56118a5565b500190565b6020808252818101527f4f776e61626c653a2063616c6c6572206973206e6f7420746865206f776e6572604082015260600190565b6000600019821415611933576119336118a5565b5060010190565b8281526040602082015260006119536040830184611526565b949350505050565b60006020828403121561196d57600080fd5b81516001600160e01b03198116811461158657600080fdfea2646970667358221220d7bd899d9b239b1c53739ffff257a99f13203b63e9a0bf93e2f7644270efd10b64736f6c63430008090033",
  "linkReferences": {},
  "deployedLinkReferences": {}
}