{
  "_format": "hh-sol-artifact-1",
  "contractName": "ERC721G",
  "sourceName": "contracts/gaia-protocol-assets/ERC721/ERC721G.sol",
  "abi": [
    {
      "inputs": [
        {
          "internalType": "string",
          "name": "name_",
          "type": "string"
        },
        {
          "internalType": "string",
          "name": "symbol_",
          "type": "string"
        },
        {
          "internalType": "string",
          "name": "baseURI_",
          "type": "string"
        }
      ],
      "stateMutability": "nonpayable",
      "type": "constructor"
    },
    {
      "anonymous": false,
      "inputs": [
        {
          "indexed": true,
          "internalType": "address",
          "name": "owner",
          "type": "address"
        },
        {
          "indexed": true,
          "internalType": "address",
          "name": "approved",
          "type": "address"
        },
        {
          "indexed": true,
          "internalType": "uint256",
          "name": "tokenId",
          "type": "uint256"
        }
      ],
      "name": "Approval",
      "type": "event"
    },
    {
      "anonymous": false,
      "inputs": [
        {
          "indexed": true,
          "internalType": "address",
          "name": "owner",
          "type": "address"
        },
        {
          "indexed": true,
          "internalType": "address",
          "name": "operator",
          "type": "address"
        },
        {
          "indexed": false,
          "internalType": "bool",
          "name": "approved",
          "type": "bool"
        }
      ],
      "name": "ApprovalForAll",
      "type": "event"
    },
    {
      "anonymous": false,
      "inputs": [
        {
          "indexed": false,
          "internalType": "address",
          "name": "account",
          "type": "address"
        }
      ],
      "name": "Paused",
      "type": "event"
    },
    {
      "anonymous": false,
      "inputs": [
        {
          "indexed": true,
          "internalType": "bytes32",
          "name": "role",
          "type": "bytes32"
        },
        {
          "indexed": true,
          "internalType": "bytes32",
          "name": "previousAdminRole",
          "type": "bytes32"
        },
        {
          "indexed": true,
          "internalType": "bytes32",
          "name": "newAdminRole",
          "type": "bytes32"
        }
      ],
      "name": "RoleAdminChanged",
      "type": "event"
    },
    {
      "anonymous": false,
      "inputs": [
        {
          "indexed": true,
          "internalType": "bytes32",
          "name": "role",
          "type": "bytes32"
        },
        {
          "indexed": true,
          "internalType": "address",
          "name": "account",
          "type": "address"
        },
        {
          "indexed": true,
          "internalType": "address",
          "name": "sender",
          "type": "address"
        }
      ],
      "name": "RoleGranted",
      "type": "event"
    },
    {
      "anonymous": false,
      "inputs": [
        {
          "indexed": true,
          "internalType": "bytes32",
          "name": "role",
          "type": "bytes32"
        },
        {
          "indexed": true,
          "internalType": "address",
          "name": "account",
          "type": "address"
        },
        {
          "indexed": true,
          "internalType": "address",
          "name": "sender",
          "type": "address"
        }
      ],
      "name": "RoleRevoked",
      "type": "event"
    },
    {
      "anonymous": false,
      "inputs": [
        {
          "indexed": false,
          "internalType": "string",
          "name": "baseURI_",
          "type": "string"
        }
      ],
      "name": "SetBaseURI",
      "type": "event"
    },
    {
      "anonymous": false,
      "inputs": [
        {
          "indexed": false,
          "internalType": "string",
          "name": "name_",
          "type": "string"
        }
      ],
      "name": "SetName",
      "type": "event"
    },
    {
      "anonymous": false,
      "inputs": [
        {
          "indexed": false,
          "internalType": "string",
          "name": "symbol_",
          "type": "string"
        }
      ],
      "name": "SetSymbol",
      "type": "event"
    },
    {
      "anonymous": false,
      "inputs": [
        {
          "indexed": true,
          "internalType": "address",
          "name": "from",
          "type": "address"
        },
        {
          "indexed": true,
          "internalType": "address",
          "name": "to",
          "type": "address"
        },
        {
          "indexed": true,
          "internalType": "uint256",
          "name": "tokenId",
          "type": "uint256"
        }
      ],
      "name": "Transfer",
      "type": "event"
    },
    {
      "anonymous": false,
      "inputs": [
        {
          "indexed": false,
          "internalType": "address",
          "name": "account",
          "type": "address"
        }
      ],
      "name": "Unpaused",
      "type": "event"
    },
    {
      "inputs": [],
      "name": "DEFAULT_ADMIN_ROLE",
      "outputs": [
        {
          "internalType": "bytes32",
          "name": "",
          "type": "bytes32"
        }
      ],
      "stateMutability": "view",
      "type": "function"
    },
    {
      "inputs": [
        {
          "internalType": "address",
          "name": "to",
          "type": "address"
        },
        {
          "internalType": "uint256",
          "name": "tokenId",
          "type": "uint256"
        }
      ],
      "name": "approve",
      "outputs": [],
      "stateMutability": "nonpayable",
      "type": "function"
    },
    {
      "inputs": [
        {
          "internalType": "address",
          "name": "owner",
          "type": "address"
        }
      ],
      "name": "balanceOf",
      "outputs": [
        {
          "internalType": "uint256",
          "name": "",
          "type": "uint256"
        }
      ],
      "stateMutability": "view",
      "type": "function"
    },
    {
      "inputs": [
        {
          "internalType": "address",
          "name": "from",
          "type": "address"
        },
        {
          "internalType": "address",
          "name": "to",
          "type": "address"
        },
        {
          "internalType": "uint256[]",
          "name": "tokenIds",
          "type": "uint256[]"
        }
      ],
      "name": "batchTransferFrom",
      "outputs": [],
      "stateMutability": "nonpayable",
      "type": "function"
    },
    {
      "inputs": [
        {
          "internalType": "uint256",
          "name": "tokenId",
          "type": "uint256"
        }
      ],
      "name": "burn",
      "outputs": [],
      "stateMutability": "nonpayable",
      "type": "function"
    },
    {
      "inputs": [
        {
          "internalType": "address",
          "name": "from",
          "type": "address"
        },
        {
          "internalType": "uint256[]",
          "name": "tokenIds",
          "type": "uint256[]"
        }
      ],
      "name": "burnBatch",
      "outputs": [],
      "stateMutability": "nonpayable",
      "type": "function"
    },
    {
      "inputs": [
        {
          "internalType": "uint256",
          "name": "tokenId",
          "type": "uint256"
        }
      ],
      "name": "exists",
      "outputs": [
        {
          "internalType": "bool",
          "name": "",
          "type": "bool"
        }
      ],
      "stateMutability": "view",
      "type": "function"
    },
    {
      "inputs": [
        {
          "internalType": "uint256",
          "name": "tokenId",
          "type": "uint256"
        }
      ],
      "name": "getApproved",
      "outputs": [
        {
          "internalType": "address",
          "name": "",
          "type": "address"
        }
      ],
      "stateMutability": "view",
      "type": "function"
    },
    {
      "inputs": [
        {
          "internalType": "bytes32",
          "name": "role",
          "type": "bytes32"
        }
      ],
      "name": "getRoleAdmin",
      "outputs": [
        {
          "internalType": "bytes32",
          "name": "",
          "type": "bytes32"
        }
      ],
      "stateMutability": "view",
      "type": "function"
    },
    {
      "inputs": [
        {
          "internalType": "bytes32",
          "name": "role",
          "type": "bytes32"
        },
        {
          "internalType": "address",
          "name": "account",
          "type": "address"
        }
      ],
      "name": "grantRole",
      "outputs": [],
      "stateMutability": "nonpayable",
      "type": "function"
    },
    {
      "inputs": [
        {
          "internalType": "bytes32",
          "name": "role",
          "type": "bytes32"
        },
        {
          "internalType": "address",
          "name": "account",
          "type": "address"
        }
      ],
      "name": "hasRole",
      "outputs": [
        {
          "internalType": "bool",
          "name": "",
          "type": "bool"
        }
      ],
      "stateMutability": "view",
      "type": "function"
    },
    {
      "inputs": [
        {
          "internalType": "address",
          "name": "owner",
          "type": "address"
        },
        {
          "internalType": "address",
          "name": "operator",
          "type": "address"
        }
      ],
      "name": "isApprovedForAll",
      "outputs": [
        {
          "internalType": "bool",
          "name": "",
          "type": "bool"
        }
      ],
      "stateMutability": "view",
      "type": "function"
    },
    {
      "inputs": [
        {
          "internalType": "address",
          "name": "to",
          "type": "address"
        },
        {
          "internalType": "uint256",
          "name": "tokenId",
          "type": "uint256"
        }
      ],
      "name": "mint",
      "outputs": [],
      "stateMutability": "nonpayable",
      "type": "function"
    },
    {
      "inputs": [
        {
          "internalType": "address",
          "name": "to",
          "type": "address"
        },
        {
          "internalType": "uint256[]",
          "name": "tokenIds",
          "type": "uint256[]"
        }
      ],
      "name": "mintBatch",
      "outputs": [],
      "stateMutability": "nonpayable",
      "type": "function"
    },
    {
      "inputs": [],
      "name": "name",
      "outputs": [
        {
          "internalType": "string",
          "name": "",
          "type": "string"
        }
      ],
      "stateMutability": "view",
      "type": "function"
    },
    {
      "inputs": [
        {
          "internalType": "uint256",
          "name": "tokenId",
          "type": "uint256"
        }
      ],
      "name": "ownerOf",
      "outputs": [
        {
          "internalType": "address",
          "name": "",
          "type": "address"
        }
      ],
      "stateMutability": "view",
      "type": "function"
    },
    {
      "inputs": [],
      "name": "paused",
      "outputs": [
        {
          "internalType": "bool",
          "name": "",
          "type": "bool"
        }
      ],
      "stateMutability": "view",
      "type": "function"
    },
    {
      "inputs": [
        {
          "internalType": "bytes32",
          "name": "role",
          "type": "bytes32"
        },
        {
          "internalType": "address",
          "name": "account",
          "type": "address"
        }
      ],
      "name": "renounceRole",
      "outputs": [],
      "stateMutability": "nonpayable",
      "type": "function"
    },
    {
      "inputs": [
        {
          "internalType": "bytes32",
          "name": "role",
          "type": "bytes32"
        },
        {
          "internalType": "address",
          "name": "account",
          "type": "address"
        }
      ],
      "name": "revokeRole",
      "outputs": [],
      "stateMutability": "nonpayable",
      "type": "function"
    },
    {
      "inputs": [
        {
          "internalType": "address",
          "name": "from",
          "type": "address"
        },
        {
          "internalType": "address",
          "name": "to",
          "type": "address"
        },
        {
          "internalType": "uint256",
          "name": "tokenId",
          "type": "uint256"
        }
      ],
      "name": "safeTransferFrom",
      "outputs": [],
      "stateMutability": "nonpayable",
      "type": "function"
    },
    {
      "inputs": [
        {
          "internalType": "address",
          "name": "from",
          "type": "address"
        },
        {
          "internalType": "address",
          "name": "to",
          "type": "address"
        },
        {
          "internalType": "uint256",
          "name": "tokenId",
          "type": "uint256"
        },
        {
          "internalType": "bytes",
          "name": "data",
          "type": "bytes"
        }
      ],
      "name": "safeTransferFrom",
      "outputs": [],
      "stateMutability": "nonpayable",
      "type": "function"
    },
    {
      "inputs": [
        {
          "internalType": "address",
          "name": "operator",
          "type": "address"
        },
        {
          "internalType": "bool",
          "name": "approved",
          "type": "bool"
        }
      ],
      "name": "setApprovalForAll",
      "outputs": [],
      "stateMutability": "nonpayable",
      "type": "function"
    },
    {
      "inputs": [
        {
          "internalType": "string",
          "name": "baseURI_",
          "type": "string"
        }
      ],
      "name": "setBaseURI",
      "outputs": [],
      "stateMutability": "nonpayable",
      "type": "function"
    },
    {
      "inputs": [
        {
          "internalType": "string",
          "name": "name_",
          "type": "string"
        }
      ],
      "name": "setName",
      "outputs": [],
      "stateMutability": "nonpayable",
      "type": "function"
    },
    {
      "inputs": [
        {
          "internalType": "bool",
          "name": "status",
          "type": "bool"
        }
      ],
      "name": "setPause",
      "outputs": [],
      "stateMutability": "nonpayable",
      "type": "function"
    },
    {
      "inputs": [
        {
          "internalType": "string",
          "name": "symbol_",
          "type": "string"
        }
      ],
      "name": "setSymbol",
      "outputs": [],
      "stateMutability": "nonpayable",
      "type": "function"
    },
    {
      "inputs": [
        {
          "internalType": "bytes4",
          "name": "interfaceId",
          "type": "bytes4"
        }
      ],
      "name": "supportsInterface",
      "outputs": [
        {
          "internalType": "bool",
          "name": "",
          "type": "bool"
        }
      ],
      "stateMutability": "view",
      "type": "function"
    },
    {
      "inputs": [],
      "name": "symbol",
      "outputs": [
        {
          "internalType": "string",
          "name": "",
          "type": "string"
        }
      ],
      "stateMutability": "view",
      "type": "function"
    },
    {
      "inputs": [
        {
          "internalType": "uint256",
          "name": "tokenId",
          "type": "uint256"
        }
      ],
      "name": "tokenURI",
      "outputs": [
        {
          "internalType": "string",
          "name": "",
          "type": "string"
        }
      ],
      "stateMutability": "view",
      "type": "function"
    },
    {
      "inputs": [],
      "name": "totalSupply",
      "outputs": [
        {
          "internalType": "uint256",
          "name": "",
          "type": "uint256"
        }
      ],
      "stateMutability": "view",
      "type": "function"
    },
    {
      "inputs": [
        {
          "internalType": "address",
          "name": "from",
          "type": "address"
        },
        {
          "internalType": "address",
          "name": "to",
          "type": "address"
        },
        {
          "internalType": "uint256",
          "name": "tokenId",
          "type": "uint256"
        }
      ],
      "name": "transferFrom",
      "outputs": [],
      "stateMutability": "nonpayable",
      "type": "function"
    }
  ],
  "bytecode": "0x60806040523480156200001157600080fd5b5060405162002f6d38038062002f6d83398101604081905262000034916200027a565b6001805460ff1916905560026200004c84826200039a565b5060036200005b83826200039a565b5060096200006a82826200039a565b506200007860003362000105565b620000a47f9f2df0fed2c77648de5860a4cc508cd0818c85b8b8a1ab4ceeef8d981c8956a63362000105565b620000d07f65d7a28e3265b37a6474929f336521b332c1681b933f6cb9f3376673440d862a3362000105565b620000fc7f528d9a33c9629b593080cfad8bd1d81718c45270a309d1b4e508037a4a612df73362000105565b50505062000466565b62000111828262000115565b5050565b6000828152602081815260408083206001600160a01b038516845290915290205460ff1662000111576000828152602081815260408083206001600160a01b03851684529091529020805460ff19166001179055620001713390565b6001600160a01b0316816001600160a01b0316837f2f8788117e7eff1d82e926ec794901d17c78024a50270940304540a733656f0d60405160405180910390a45050565b634e487b7160e01b600052604160045260246000fd5b600082601f830112620001dd57600080fd5b81516001600160401b0380821115620001fa57620001fa620001b5565b604051601f8301601f19908116603f01168101908282118183101715620002255762000225620001b5565b816040528381526020925086838588010111156200024257600080fd5b600091505b8382101562000266578582018301518183018401529082019062000247565b600093810190920192909252949350505050565b6000806000606084860312156200029057600080fd5b83516001600160401b0380821115620002a857600080fd5b620002b687838801620001cb565b94506020860151915080821115620002cd57600080fd5b620002db87838801620001cb565b93506040860151915080821115620002f257600080fd5b506200030186828701620001cb565b9150509250925092565b600181811c908216806200032057607f821691505b6020821081036200034157634e487b7160e01b600052602260045260246000fd5b50919050565b601f8211156200039557600081815260208120601f850160051c81016020861015620003705750805b601f850160051c820191505b8181101562000391578281556001016200037c565b5050505b505050565b81516001600160401b03811115620003b657620003b6620001b5565b620003ce81620003c784546200030b565b8462000347565b602080601f831160018114620004065760008415620003ed5750858301515b600019600386901b1c1916600185901b17855562000391565b600085815260208120601f198616915b82811015620004375788860151825594840194600190910190840162000416565b5085821015620004565787850151600019600388901b60f8161c191681555b5050505050600190811b01905550565b612af780620004766000396000f3fe608060405234801561001057600080fd5b50600436106101e55760003560e01c80636352211e1161010f578063b84c8246116100a2578063c87b56dd11610071578063c87b56dd1461040d578063d547741f14610420578063e985e9c514610433578063f3993d111461044657600080fd5b8063b84c8246146103c1578063b88d4fde146103d4578063bedb86fb146103e7578063c47f0027146103fa57600080fd5b806395d89b41116100de57806395d89b411461038b578063a217fddf14610393578063a22cb4651461039b578063b2dc5dc3146103ae57600080fd5b80636352211e1461033f57806370a082311461035257806375ceb3411461036557806391d148541461037857600080fd5b80632f2ff15d1161018757806342966c681161015657806342966c68146102fb5780634f558e791461030e57806355f804b3146103215780635c975abb1461033457600080fd5b80632f2ff15d146102af57806336568abe146102c257806340c10f19146102d557806342842e0e146102e857600080fd5b8063095ea7b3116101c3578063095ea7b31461025257806318160ddd1461026757806323b872dd14610279578063248a9ca31461028c57600080fd5b806301ffc9a7146101ea57806306fdde0314610212578063081812fc14610227575b600080fd5b6101fd6101f836600461218d565b610459565b60405190151581526020015b60405180910390f35b61021a61049f565b60405161020991906121fa565b61023a61023536600461220d565b610531565b6040516001600160a01b039091168152602001610209565b610265610260366004612242565b610558565b005b6008545b604051908152602001610209565b61026561028736600461226c565b610673565b61026b61029a36600461220d565b60009081526020819052604090206001015490565b6102656102bd3660046122a8565b6106a4565b6102656102d03660046122a8565b6106c9565b6102656102e3366004612242565b610747565b6102656102f636600461226c565b610797565b61026561030936600461220d565b6107b2565b6101fd61031c36600461220d565b61082a565b61026561032f3660046122d4565b610849565b60015460ff166101fd565b61023a61034d36600461220d565b610930565b61026b610360366004612346565b610991565b6102656103733660046123ad565b610a18565b6101fd6103863660046122a8565b610a69565b61021a610a92565b61026b600081565b6102656103a9366004612410565b610aa1565b6102656103bc3660046123ad565b610aac565b6102656103cf3660046122d4565b610afd565b6102656103e2366004612450565b610bd1565b6102656103f536600461252c565b610c09565b6102656104083660046122d4565b610ca5565b61021a61041b36600461220d565b610d77565b61026561042e3660046122a8565b610dde565b6101fd610441366004612547565b610e03565b610265610454366004612571565b610e31565b60006001600160e01b031982166380ac58cd60e01b148061048a57506001600160e01b03198216635b5e139f60e01b145b80610499575061049982610e3d565b92915050565b6060600280546104ae906125d2565b80601f01602080910402602001604051908101604052809291908181526020018280546104da906125d2565b80156105275780601f106104fc57610100808354040283529160200191610527565b820191906000526020600020905b81548152906001019060200180831161050a57829003601f168201915b5050505050905090565b600061053c82610e72565b506000908152600660205260409020546001600160a01b031690565b600061056382610930565b9050806001600160a01b0316836001600160a01b0316036105d65760405162461bcd60e51b815260206004820152602260248201527f455243373231473a20617070726f76616c20746f2063757272656e74206f776e60448201526132b960f11b60648201526084015b60405180910390fd5b336001600160a01b03821614806105f257506105f28133610e03565b6106645760405162461bcd60e51b815260206004820152603f60248201527f455243373231473a20617070726f76652063616c6c6572206973206e6f74207460448201527f6f6b656e206f776e6572206e6f7220617070726f76656420666f7220616c6c0060648201526084016105cd565b61066e8383610ed2565b505050565b61067d3382610f40565b6106995760405162461bcd60e51b81526004016105cd9061260c565b61066e838383610f9f565b6000828152602081905260409020600101546106bf81611137565b61066e8383611141565b6001600160a01b03811633146107395760405162461bcd60e51b815260206004820152602f60248201527f416363657373436f6e74726f6c3a2063616e206f6e6c792072656e6f756e636560448201526e103937b632b9903337b91039b2b63360891b60648201526084016105cd565b61074382826111c5565b5050565b6107717f9f2df0fed2c77648de5860a4cc508cd0818c85b8b8a1ab4ceeef8d981c8956a633610a69565b61078d5760405162461bcd60e51b81526004016105cd9061265b565b610743828261122a565b61066e83838360405180602001604052806000815250610bd1565b6107dc7f3c11d16cbaffd01df69ce1c404f6340ee057498f5f00246190ea54220576a84833610a69565b6107f85760405162461bcd60e51b81526004016105cd906126a1565b6108023382610f40565b61081e5760405162461bcd60e51b81526004016105cd906126e7565b61082781611370565b50565b6000818152600460205260408120546001600160a01b03161515610499565b6108737f528d9a33c9629b593080cfad8bd1d81718c45270a309d1b4e508037a4a612df733610a69565b6108e55760405162461bcd60e51b815260206004820152603760248201527f455243373231473a206d7573742068617665206d65746164617461206f70657260448201527f61746f7220726f6c6520746f207365744261736555524900000000000000000060648201526084016105cd565b60096108f282848361275b565b507f23c8c9488efebfd474e85a7956de6f39b17c7ab88502d42a623db2d8e382bbaa828260405161092492919061281c565b60405180910390a15050565b6000818152600460205260408120546001600160a01b0316806104995760405162461bcd60e51b8152602060048201526019602482015278115490cdcc8c51ce881a5b9d985b1a59081d1bdad95b881251603a1b60448201526064016105cd565b60006001600160a01b0382166109fc5760405162461bcd60e51b815260206004820152602a60248201527f455243373231473a2061646472657373207a65726f206973206e6f742061207660448201526930b634b21037bbb732b960b11b60648201526084016105cd565b506001600160a01b031660009081526005602052604090205490565b610a427f9f2df0fed2c77648de5860a4cc508cd0818c85b8b8a1ab4ceeef8d981c8956a633610a69565b610a5e5760405162461bcd60e51b81526004016105cd9061265b565b61066e838383611405565b6000918252602082815260408084206001600160a01b0393909316845291905290205460ff1690565b6060600380546104ae906125d2565b610743338383611589565b610ad67f3c11d16cbaffd01df69ce1c404f6340ee057498f5f00246190ea54220576a84833610a69565b610af25760405162461bcd60e51b81526004016105cd906126a1565b61066e838383611657565b610b277f528d9a33c9629b593080cfad8bd1d81718c45270a309d1b4e508037a4a612df733610a69565b610b925760405162461bcd60e51b815260206004820152603660248201527f455243373231473a206d7573742068617665206d65746164617461206f706572604482015275185d1bdc881c9bdb19481d1bc81cd95d14de5b589bdb60521b60648201526084016105cd565b6003610b9f82848361275b565b507fadf3ae8bd543b3007d464f15cb8ea1db3f44e84d41d203164f40b95e27558ac6828260405161092492919061281c565b610bdb3383610f40565b610bf75760405162461bcd60e51b81526004016105cd9061260c565b610c0384848484611848565b50505050565b610c337f65d7a28e3265b37a6474929f336521b332c1681b933f6cb9f3376673440d862a33610a69565b610c8f5760405162461bcd60e51b815260206004820152602760248201527f455243373231473a206d75737420686176652070617573657220726f6c6520746044820152666f20706175736560c81b60648201526084016105cd565b8015610c9d5761082761187b565b6108276118cf565b610ccf7f528d9a33c9629b593080cfad8bd1d81718c45270a309d1b4e508037a4a612df733610a69565b610d385760405162461bcd60e51b815260206004820152603460248201527f455243373231473a206d7573742068617665206d65746164617461206f70657260448201527361746f7220726f6c6520746f207365744e616d6560601b60648201526084016105cd565b6002610d4582848361275b565b507f4df9dcd34ae35f40f2c756fd8ac83210ed0b76d065543ee73d868aec7c7fcf02828260405161092492919061281c565b6060610d8282610e72565b6000610d8c611908565b90506000815111610dac5760405180602001604052806000815250610dd7565b80610db684611917565b604051602001610dc792919061284b565b6040516020818303038152906040525b9392505050565b600082815260208190526040902060010154610df981611137565b61066e83836111c5565b6001600160a01b03918216600090815260076020908152604080832093909416825291909152205460ff1690565b610c03848484846119aa565b60006001600160e01b03198216637965db0b60e01b148061049957506301ffc9a760e01b6001600160e01b0319831614610499565b6000818152600460205260409020546001600160a01b03166108275760405162461bcd60e51b8152602060048201526019602482015278115490cdcc8c51ce881a5b9d985b1a59081d1bdad95b881251603a1b60448201526064016105cd565b600081815260066020526040902080546001600160a01b0319166001600160a01b0384169081179091558190610f0782610930565b6001600160a01b03167f8c5be1e5ebec7d5bd14f71427d1e84f3dd0314c0f7b2291e5b200ac8c7c3b92560405160405180910390a45050565b600080610f4c83610930565b9050806001600160a01b0316846001600160a01b03161480610f735750610f738185610e03565b80610f975750836001600160a01b0316610f8c84610531565b6001600160a01b0316145b949350505050565b826001600160a01b0316610fb282610930565b6001600160a01b0316146110175760405162461bcd60e51b815260206004820152602660248201527f455243373231473a207472616e736665722066726f6d20696e636f72726563746044820152651037bbb732b960d11b60648201526084016105cd565b6001600160a01b03821661107b5760405162461bcd60e51b815260206004820152602560248201527f455243373231473a207472616e7366657220746f20746865207a65726f206164604482015264647265737360d81b60648201526084016105cd565b611086838383611c26565b611091600082610ed2565b6001600160a01b03831660009081526005602052604081208054600192906110ba908490612890565b90915550506001600160a01b03821660009081526005602052604081208054600192906110e89084906128a3565b909155505060008181526004602052604080822080546001600160a01b0319166001600160a01b038681169182179092559151849391871691600080516020612aa283398151915291a4505050565b6108278133611c91565b61114b8282610a69565b610743576000828152602081815260408083206001600160a01b03851684529091529020805460ff191660011790556111813390565b6001600160a01b0316816001600160a01b0316837f2f8788117e7eff1d82e926ec794901d17c78024a50270940304540a733656f0d60405160405180910390a45050565b6111cf8282610a69565b15610743576000828152602081815260408083206001600160a01b0385168085529252808320805460ff1916905551339285917ff6391f5c32d9c69d2a47ea670b442974b53935d1edc7fd64eb21e047a839171b9190a45050565b6001600160a01b03821661128a5760405162461bcd60e51b815260206004820152602160248201527f455243373231473a206d696e7420746f20746865207a65726f206164647265736044820152607360f81b60648201526084016105cd565b6000818152600460205260409020546001600160a01b0316156112ef5760405162461bcd60e51b815260206004820152601d60248201527f455243373231473a20746f6b656e20616c7265616479206d696e74656400000060448201526064016105cd565b6112fb60008383611c26565b6001600160a01b03821660009081526005602052604081208054600192906113249084906128a3565b909155505060008181526004602052604080822080546001600160a01b0319166001600160a01b0386169081179091559051839290600080516020612aa2833981519152908290a45050565b600061137b82610930565b905061138981600084611c26565b611394600083610ed2565b6001600160a01b03811660009081526005602052604081208054600192906113bd908490612890565b909155505060008281526004602052604080822080546001600160a01b0319169055518391906001600160a01b03841690600080516020612aa2833981519152908390a45050565b6001600160a01b03831661144f5760405162461bcd60e51b815260206004820152601160248201527004d494e545f544f5f414444524553535f3607c1b60448201526064016105cd565b808061146d5760405162461bcd60e51b81526004016105cd906128b6565b61147a6000858585611cea565b60005b81811015611555576000848483818110611499576114996128de565b9050602002013590506114c3816000908152600460205260409020546001600160a01b0316151590565b156115015760405162461bcd60e51b815260206004820152600e60248201526d1053149150511657d3525395115160921b60448201526064016105cd565b60008181526004602052604080822080546001600160a01b0319166001600160a01b038a169081179091559051839290600080516020612aa2833981519152908290a45061154e816128f4565b905061147d565b506001600160a01b0384166000908152600560205260408120805483929061157e9084906128a3565b909155505050505050565b816001600160a01b0316836001600160a01b0316036115ea5760405162461bcd60e51b815260206004820152601a60248201527f455243373231473a20617070726f766520746f2063616c6c657200000000000060448201526064016105cd565b6001600160a01b03838116600081815260076020908152604080832094871680845294825291829020805460ff191686151590811790915591519182527f17307eab39ab6107e8899845ad3d59bd9653f200f220920489ca2b5937696c31910160405180910390a3505050565b6001600160a01b0383166116a35760405162461bcd60e51b815260206004820152601360248201527204255524e5f46524f4d5f414444524553535f3606c1b60448201526064016105cd565b80806116c15760405162461bcd60e51b81526004016105cd906128b6565b6000336001600160a01b03861614806116df57506116df8533610e03565b156116e8575060015b6116f58560008686611cea565b60005b82811015611813576000858583818110611714576117146128de565b6020908102929092013560008181526004909352604090922054919250506001600160a01b038881169116146117835760405162461bcd60e51b815260206004820152601460248201527313d5d3915497d19493d357d393d517d15455505360621b60448201526064016105cd565b826117b8573361179282610531565b6001600160a01b0316146117b85760405162461bcd60e51b81526004016105cd906126e7565b6117c3600082610ed2565b60008181526004602052604080822080546001600160a01b0319169055518291906001600160a01b038a1690600080516020612aa2833981519152908390a45061180c816128f4565b90506116f8565b506001600160a01b0385166000908152600560205260408120805484929061183c908490612890565b90915550505050505050565b611853848484610f9f565b61185f84848484611d5f565b610c035760405162461bcd60e51b81526004016105cd9061290d565b611883611e60565b6001805460ff1916811790557f62e78cea01bee320cd4e420270b5ea74000d11b0c9f74754ebdbfc544b05a258335b6040516001600160a01b03909116815260200160405180910390a1565b6118d7611ea8565b6001805460ff191690557f5db9ee0a495bf2e6ff9c91a7834c1ba4fdd244a5e8aa4e537bd38aeae4b073aa336118b2565b6060600980546104ae906125d2565b6060600061192483611ef1565b600101905060008167ffffffffffffffff8111156119445761194461243a565b6040519080825280601f01601f19166020018201604052801561196e576020820181803683370190505b5090508181016020015b600019016f181899199a1a9b1b9c1cb0b131b232b360811b600a86061a8153600a850494508461197857509392505050565b6001600160a01b038416611a005760405162461bcd60e51b815260206004820152601760248201527f5452414e534645525f46524f4d5f414444524553535f3000000000000000000060448201526064016105cd565b6001600160a01b038316611a4e5760405162461bcd60e51b815260206004820152601560248201527405452414e534645525f544f5f414444524553535f3605c1b60448201526064016105cd565b8080611a6c5760405162461bcd60e51b81526004016105cd906128b6565b6000336001600160a01b0387161480611a8a5750611a8a8633610e03565b15611a93575060015b611a9f86868686611cea565b60005b82811015611bc3576000858583818110611abe57611abe6128de565b6020908102929092013560008181526004909352604090922054919250506001600160a01b03898116911614611b2d5760405162461bcd60e51b815260206004820152601460248201527313d5d3915497d19493d357d393d517d15455505360621b60448201526064016105cd565b82611b625733611b3c82610531565b6001600160a01b031614611b625760405162461bcd60e51b81526004016105cd906126e7565b611b6d600082610ed2565b60008181526004602052604080822080546001600160a01b0319166001600160a01b038b811691821790925591518493918c1691600080516020612aa283398151915291a450611bbc816128f4565b9050611aa2565b506001600160a01b03861660009081526005602052604081208054849290611bec908490612890565b90915550506001600160a01b03851660009081526005602052604081208054849290611c199084906128a3565b9091555050505050505050565b6001600160a01b038316611c4a5760088054906000611c44836128f4565b91905055505b6001600160a01b038216611c6e5760088054906000611c6883612960565b91905055505b60015460ff161561066e5760405162461bcd60e51b81526004016105cd90612977565b611c9b8282610a69565b61074357611ca881611fc9565b611cb3836020611fdb565b604051602001611cc49291906129bb565b60408051601f198184030181529082905262461bcd60e51b82526105cd916004016121fa565b6001600160a01b038416611d13578181905060086000828254611d0d91906128a3565b90915550505b6001600160a01b038316611d3c578181905060086000828254611d369190612890565b90915550505b60015460ff1615610c035760405162461bcd60e51b81526004016105cd90612977565b60006001600160a01b0384163b15611e5557604051630a85bd0160e11b81526001600160a01b0385169063150b7a0290611da3903390899088908890600401612a30565b6020604051808303816000875af1925050508015611dde575060408051601f3d908101601f19168201909252611ddb91810190612a6d565b60015b611e3b573d808015611e0c576040519150601f19603f3d011682016040523d82523d6000602084013e611e11565b606091505b508051600003611e335760405162461bcd60e51b81526004016105cd9061290d565b805181602001fd5b6001600160e01b031916630a85bd0160e11b149050610f97565b506001949350505050565b60015460ff1615611ea65760405162461bcd60e51b815260206004820152601060248201526f14185d5cd8589b194e881c185d5cd95960821b60448201526064016105cd565b565b60015460ff16611ea65760405162461bcd60e51b815260206004820152601460248201527314185d5cd8589b194e881b9bdd081c185d5cd95960621b60448201526064016105cd565b60008072184f03e93ff9f4daa797ed6e38ed64bf6a1f0160401b8310611f305772184f03e93ff9f4daa797ed6e38ed64bf6a1f0160401b830492506040015b6d04ee2d6d415b85acef81000000008310611f5c576d04ee2d6d415b85acef8100000000830492506020015b662386f26fc100008310611f7a57662386f26fc10000830492506010015b6305f5e1008310611f92576305f5e100830492506008015b6127108310611fa657612710830492506004015b60648310611fb8576064830492506002015b600a83106104995760010192915050565b60606104996001600160a01b03831660145b60606000611fea836002612a8a565b611ff59060026128a3565b67ffffffffffffffff81111561200d5761200d61243a565b6040519080825280601f01601f191660200182016040528015612037576020820181803683370190505b509050600360fc1b81600081518110612052576120526128de565b60200101906001600160f81b031916908160001a905350600f60fb1b81600181518110612081576120816128de565b60200101906001600160f81b031916908160001a90535060006120a5846002612a8a565b6120b09060016128a3565b90505b6001811115612128576f181899199a1a9b1b9c1cb0b131b232b360811b85600f16601081106120e4576120e46128de565b1a60f81b8282815181106120fa576120fa6128de565b60200101906001600160f81b031916908160001a90535060049490941c9361212181612960565b90506120b3565b508315610dd75760405162461bcd60e51b815260206004820181905260248201527f537472696e67733a20686578206c656e67746820696e73756666696369656e7460448201526064016105cd565b6001600160e01b03198116811461082757600080fd5b60006020828403121561219f57600080fd5b8135610dd781612177565b60005b838110156121c55781810151838201526020016121ad565b50506000910152565b600081518084526121e68160208601602086016121aa565b601f01601f19169290920160200192915050565b602081526000610dd760208301846121ce565b60006020828403121561221f57600080fd5b5035919050565b80356001600160a01b038116811461223d57600080fd5b919050565b6000806040838503121561225557600080fd5b61225e83612226565b946020939093013593505050565b60008060006060848603121561228157600080fd5b61228a84612226565b925061229860208501612226565b9150604084013590509250925092565b600080604083850312156122bb57600080fd5b823591506122cb60208401612226565b90509250929050565b600080602083850312156122e757600080fd5b823567ffffffffffffffff808211156122ff57600080fd5b818501915085601f83011261231357600080fd5b81358181111561232257600080fd5b86602082850101111561233457600080fd5b60209290920196919550909350505050565b60006020828403121561235857600080fd5b610dd782612226565b60008083601f84011261237357600080fd5b50813567ffffffffffffffff81111561238b57600080fd5b6020830191508360208260051b85010111156123a657600080fd5b9250929050565b6000806000604084860312156123c257600080fd5b6123cb84612226565b9250602084013567ffffffffffffffff8111156123e757600080fd5b6123f386828701612361565b9497909650939450505050565b8035801515811461223d57600080fd5b6000806040838503121561242357600080fd5b61242c83612226565b91506122cb60208401612400565b634e487b7160e01b600052604160045260246000fd5b6000806000806080858703121561246657600080fd5b61246f85612226565b935061247d60208601612226565b925060408501359150606085013567ffffffffffffffff808211156124a157600080fd5b818701915087601f8301126124b557600080fd5b8135818111156124c7576124c761243a565b604051601f8201601f19908116603f011681019083821181831017156124ef576124ef61243a565b816040528281528a602084870101111561250857600080fd5b82602086016020830137600060208483010152809550505050505092959194509250565b60006020828403121561253e57600080fd5b610dd782612400565b6000806040838503121561255a57600080fd5b61256383612226565b91506122cb60208401612226565b6000806000806060858703121561258757600080fd5b61259085612226565b935061259e60208601612226565b9250604085013567ffffffffffffffff8111156125ba57600080fd5b6125c687828801612361565b95989497509550505050565b600181811c908216806125e657607f821691505b60208210810361260657634e487b7160e01b600052602260045260246000fd5b50919050565b6020808252602f908201527f455243373231473a2063616c6c6572206973206e6f7420746f6b656e206f776e60408201526e195c881b9bdc88185c1c1c9bdd9959608a1b606082015260800190565b60208082526026908201527f455243373231473a206d7573742068617665206d696e74657220726f6c6520746040820152651bc81b5a5b9d60d21b606082015260800190565b60208082526026908201527f455243373231473a206d7573742068617665206275726e657220726f6c6520746040820152653790313ab93760d11b606082015260800190565b6020808252600c908201526b15539055551213d49256915160a21b604082015260600190565b601f82111561066e57600081815260208120601f850160051c810160208610156127345750805b601f850160051c820191505b8181101561275357828155600101612740565b505050505050565b67ffffffffffffffff8311156127735761277361243a565b6127878361278183546125d2565b8361270d565b6000601f8411600181146127bb57600085156127a35750838201355b600019600387901b1c1916600186901b178355612815565b600083815260209020601f19861690835b828110156127ec57868501358255602094850194600190920191016127cc565b50868210156128095760001960f88860031b161c19848701351681555b505060018560011b0183555b5050505050565b60208152816020820152818360408301376000818301604090810191909152601f909201601f19160101919050565b6000835161285d8184602088016121aa565b8351908301906128718183602088016121aa565b01949350505050565b634e487b7160e01b600052601160045260246000fd5b818103818111156104995761049961287a565b808201808211156104995761049961287a565b6020808252600e908201526d1253959053125117d05353d5539560921b604082015260600190565b634e487b7160e01b600052603260045260246000fd5b6000600182016129065761290661287a565b5060010190565b60208082526033908201527f455243373231473a207472616e7366657220746f206e6f6e204552433732315260408201527232b1b2b4bb32b91034b6b83632b6b2b73a32b960691b606082015260800190565b60008161296f5761296f61287a565b506000190190565b60208082526024908201527f455243373231473a20746f6b656e207472616e73666572207768696c652070616040820152631d5cd95960e21b606082015260800190565b7f416363657373436f6e74726f6c3a206163636f756e74200000000000000000008152600083516129f38160178501602088016121aa565b7001034b99036b4b9b9b4b733903937b6329607d1b6017918401918201528351612a248160288401602088016121aa565b01602801949350505050565b6001600160a01b0385811682528416602082015260408101839052608060608201819052600090612a63908301846121ce565b9695505050505050565b600060208284031215612a7f57600080fd5b8151610dd781612177565b80820281158282048414176104995761049961287a56feddf252ad1be2c89b69c2b068fc378daa952ba7f163c4a11628f55a4df523b3efa26469706673582212201bdff867ebad443ead98cd5c56c67386c2bbae17a595dc9553dcb8df0e86240164736f6c63430008140033",
  "linkReferences": {},
  "deployedLinkReferences": {}
}